:100000000C9462000C948A000C948A000C948A0070
:100010000C948A000C948A000C948A000C948A0038
:100020000C948A000C948A000C948A000C948A0028
:100030000C948A000C948A000C948A000C948A0018
:100040000C940E030C948A000C947E030C945803B9
:100050000C948A000C948A000C948A000C948A00F8
:100060000C948A000C948A000000000023002600F3
:10007000290000000000240027002A0000000000E2
:10008000250028002B0004040404040404040202D4
:100090000202020203030303030301020408102007
:1000A0004080010204081020010204081020000012
:1000B0000008000201000003040700000000000027
:1000C0000000F80511241FBECFEFD8E0DEBFCDBF82
:1000D00012E0A0E0B1E0E8E8F2E102C005900D9284
:1000E000A438B107D9F723E0A4E8B2E001C01D921B
:1000F000AA32B207E1F710E0C2E6D0E004C02197CF
:10010000FE010E944D06C136D107C9F70E94B00317
:100110000C9442090C940000833081F028F4813063
:1001200099F08230A1F008958730A9F08830B9F0B5
:100130008430D1F4809180008F7D03C08091800055
:100140008F7780938000089584B58F7702C084B53F
:100150008F7D84BD08958091B0008F7703C080911A
:10016000B0008F7D8093B00008951F93CF93DF93ED
:10017000282F30E0F901E255FF4F8491F901E6564E
:10018000FF4FD491F901EA57FF4FC491CC23C1F03E
:10019000162F81110E948C00EC2FF0E0EE0FFF1F54
:1001A000E458FF4FA591B4919FB7F894111104C082
:1001B0008C91D095D82302C0EC91DE2BDC939FBFAD
:1001C000DF91CF911F910895CF93DF9390E0FC01D1
:1001D000E656FF4F2491FC01EA57FF4F8491882394
:1001E00061F190E0880F991FFC01EE58FF4FC59117
:1001F000D491FC01E458FF4FA591B491611109C05D
:100200009FB7F8948881209582238883EC912E23D0
:100210000BC0623061F49FB7F8948881322F30951B
:1002200083238883EC912E2B2C939FBF06C08FB71E
:10023000F894E8812E2B28838FBFDF91CF9108950A
:100240003FB7F8948091890290918A02A0918B0225
:10025000B0918C0226B5A89B05C02F3F19F00196DE
:10026000A11DB11D3FBFBA2FA92F982F8827820F3C
:10027000911DA11DB11DBC01CD0142E0660F771F8C
:10028000881F991F4A95D1F70895CF92DF92EF9278
:10029000FF920F931F93CF93DF936C017A018B0131
:1002A000C0E0D0E0CE15DF0581F0D8016D918D0161
:1002B000D601ED91FC910190F081E02DC6010995E8
:1002C000892B11F02196EECF7E01C701DF91CF91EE
:1002D0001F910F91FF90EF90DF90CF9008950895B8
:1002E00080E090E00895FC01538D448D252F30E08F
:1002F000842F90E0821B930B541710F0CF96089533
:1003000001970895FC01918D828D981761F0828D7F
:10031000DF01A80FB11D5D968C91928D9F5F9F7339
:10032000928F90E008958FEF9FEF0895FC01918DDB
:10033000828D981731F0828DE80FF11D858D90E048
:1003400008958FEF9FEF0895FC01918D228D892FE5
:1003500090E0805C9F4F821B91098F7399270895CD
:100360008DE892E00E94A40121E0892B09F420E0AD
:10037000822F0895FC01848DDF01A80FB11DA35ABF
:10038000BF4F2C91848D90E001968F739927848FB5
:10039000A689B7892C93A089B1898C9183708064D8
:1003A0008C93938D848D981306C00288F389E02D79
:1003B00080818F7D80830895EF92FF920F931F932A
:1003C000CF93DF93EC0181E0888F9B8D8C8D981308
:1003D00005C0E889F989808185FD26C0F62E0B8D40
:1003E00010E00F5F1F4F0F731127E02E8C8DE81266
:1003F0000CC00FB607FCFACFE889F989808185FF28
:10040000F5CFCE010E94BA01F1CF8B8DFE01E80F2E
:10041000F11DE35AFF4FF0829FB7F8940B8FEA89E2
:10042000FB89808180620AC09FB7F894EE89FF89BA
:100430006083E889F98980818370806480839FBFAD
:1004400081E090E0DF91CF911F910F91FF90EF90AD
:100450000895CF93DF93EC01888D8823C9F0EA8952
:10046000FB89808185FD05C0A889B9898C9186FDAD
:100470000FC00FB607FCF5CF808185FFF2CFA889AA
:10048000B9898C9185FFEDCFCE010E94BA01E7CFEB
:10049000DF91CF91089580E090E0892B29F00E94B0
:1004A000B00181110C94000008950F931F93CF9316
:1004B000DF93C7E0D0E0082F10E0B8010C2E02C097
:1004C000759567950A94E2F7617082E00E94B50025
:1004D00061E083E00E94B50060E083E00E94B50027
:1004E000219758F7DF91CF911F910F910895CF93E6
:1004F000C82F611102C080E801C080E0892B0E94F2
:1005000055028C2F0E94550260E084E00E94B500E5
:1005100061E084E00E94B50060E084E0CF910C943B
:10052000B5008F929F92AF92BF92CF92DF92EF92DF
:10053000FF92CF93DF93D62F60E00E947702C5E051
:1005400061E08C2F0E94E400CF5FCD30C9F7C5E099
:100550006D2F61708C2F0E94B500D695CF5FCD3086
:10056000B9F760E08DE00E94B50061E08DE00E9487
:10057000B5000E9420014B015C018AE0C82ED12CFD
:10058000E12CF12C0E942001DC01CB018819990992
:10059000AA09BB09883E9340A105B10598F321E063
:1005A000C21AD108E108F10888EE880E83E0981E8F
:1005B000A11CB11CC114D104E104F10419F7DF91AD
:1005C000CF91FF90EF90DF90CF90BF90AF909F9032
:1005D0008F900895CF93DF93009779F0FC010190FD
:1005E0000020E9F73197AF01481B590BBC018DE89A
:1005F00092E00E944501EC0102C0C0E0D0E042E080
:1006000050E06CE171E08DE892E00E9445018C0FB2
:100610009D1FDF91CF9108950E9453061F920F9264
:100620000FB60F9211242F933F938F939F93AF9305
:10063000BF938091850290918602A0918702B0912C
:1006400088023091840223E0230F2D3720F4019695
:10065000A11DB11D05C026E8230F0296A11DB11DE5
:10066000209384028093850290938602A093870250
:10067000B09388028091890290918A02A0918B02A6
:10068000B0918C020196A11DB11D809389029093B7
:100690008A02A0938B02B0938C02BF91AF919F917D
:1006A0008F913F912F910F900FBE0F901F90189533
:1006B0001F920F920FB60F9211242F933F934F93D7
:1006C0005F936F937F938F939F93AF93BF93EF93BA
:1006D000FF938DE892E00E94BA01FF91EF91BF91E4
:1006E000AF919F918F917F916F915F914F913F91CA
:1006F0002F910F900FBE0F901F9018951F920F9281
:100700000FB60F9211242F938F939F93EF93FF9324
:10071000E0919D02F0919E028081E091A302F09110
:10072000A40282FD12C090818091A6028F5F8F7318
:100730002091A702821751F0E091A602F0E0E35762
:10074000FD4F958F8093A60201C08081FF91EF91AC
:100750009F918F912F910F900FBE0F901F90189522
:10076000CF93DF93CDB7DEB7CB56D1090FB6F89450
:10077000DEBF0FBECDBF789484B5826084BD84B5E2
:10078000816084BD85B5826085BD85B5816085BD8C
:1007900080916E00816080936E0010928100809144
:1007A00081008260809381008091810081608093CC
:1007B0008100809180008160809380008091B100F1
:1007C00084608093B1008091B00081608093B0001C
:1007D00080917A00846080937A0080917A008260B0
:1007E00080937A0080917A00816080937A00809172
:1007F0007A00806880937A001092C10061E082E004
:100800000E94E40061E083E00E94E40061E084E093
:100810000E94E40061E08DE00E94B50061E08DE09F
:100820000E94E400E0919D02F0919E0282E08083AC
:10083000E0919D02F0919E021082E0919902F09168
:100840009A021082E0919B02F0919C0280E18083E9
:100850001092A502E091A102F091A20286E08083AD
:10086000E0919F02F091A002808180618083E091FD
:100870009F02F091A002808188608083E0919F02B6
:10088000F091A002808180688083E0919F02F091C6
:10089000A00280818F7D80838AE0E0E0F1E0DE01CC
:1008A000AF59BF4F01900D928A95E1F78FE191E02A
:1008B0000E94EA0200E010E0FAE0EF2EF12CC801FD
:1008C000B7010E942506E1E6F0E0EC0FFD1FE80FFE
:1008D000F91F6081C8010E9491020F5F1F4F01152F
:1008E00021E0120761F786E391E00E94EA0200E04E
:1008F00010E0EAE0EE2EF12CC801B7010E942506B7
:10090000CB01B7010E942506E1E6F0E0EC0FFD1FE8
:10091000E80FF91F6081C80193950E9491020F5F53
:100920001F4F011581E0180739F78DE491E00E940F
:10093000EA0200E010E074E6E72EF12CC801B701EE
:100940000E942506E1E6F0E0EC0FFD1FE60FF71F21
:100950006081C8019E5F0E9491020F5F1F4F0115C9
:1009600091E0190759F788E691E00E94EA0200E059
:1009700013E060E0C8010E9491020F5F1F4F011554
:10098000E4E01E07B1F789E791E00E94EA0200E87F
:100990001FEF6AE0E62EF12CC80117FF04C088277C
:1009A0009927801B910BB7010E942506E1E6F0E034
:1009B000EC0FFD1FE80FF91FC801992760819C5FAC
:1009C0000E9491020F5F1F4F0038110529F782EA3C
:1009D00091E00E94EA0200E81FEF46EFC42EDD24FA
:1009E000DA945AE0E52EF12CC8010A30110514F012
:1009F000B70101C0B6010E942506CB01B7010E94D4
:100A00002506E1E6F0E0EC0FFD1FE80FF91FC80135
:100A1000992760819B5F0E9491020F5F1F4F0038F2
:100A2000110511F78BEC91E00E94EA0200E81FEF3C
:100A30003CE9E32EFF24FA94043611052CF4C80196
:100A4000B7010E94250602C061E070E0E1E6F0E037
:100A5000EC0FFD1FE60FF71FC801992760819A5F11
:100A60000E9491020F5F1F4F0038110529F788EF90
:100A700091E00E94EA0200E81FEF17FF04C061E066
:100A8000C801992702C060E0C801995F0E949102E5
:100A90000F5F1F4F0038110581F78BE192E00E9434
:100AA000EA02E12CF12C8E010F5A1F4F2801F0E1D0
:100AB0004F0E511CCE0101964C0158013701601AAE
:100AC000710A6301CA0CDB1C25E0322E60E0832D25
:100AD0000E94E40033949DE03912F8CF61E0C60132
:100AE0000E94770280E09CE0C92ED12C880FAC9642
:100AF0008FAFAC97F601E255FF4F8491F601E656B1
:100B0000FF4F2490F601EA57FF4F3490332079F0DD
:100B100081110E948C00E32DF0E0EE0FFF1FE859D9
:100B2000FF4FA591B491EC912E2281E009F480E071
:100B3000AC96EFADAC978E0FF1E0CF1AD10824E060
:100B4000C216D10499F6F50181935F014E165F0636
:100B500009F0B7CFF80187851F928F9386851F9282
:100B60008F9385851F928F9384851F928F938385A2
:100B70001F928F9382851F928F9381851F928F93EF
:100B800080851F928F9387811F928F9386811F92FA
:100B90008F9385811F928F9384811F928F9383817E
:100BA0001F928F9382811F928F9381811F928F93C7
:100BB00080811F928F93FF92EF928AE292E09F933F
:100BC0008F939F928F920E9458060FB6F894DEBFC3
:100BD0000FBECDBFC4010E94EA0290E1E90EF11CF4
:100BE000E114E1E0FE0609F068CF0E944B02FDCF60
:100BF000EDE8F2E01382128288EE93E0A0E0B0E02C
:100C000084839583A683B7838EE091E0918380836C
:100C100085EC90E09587848784EC90E097878687C1
:100C200080EC90E0918B808B81EC90E0938B828BB9
:100C300082EC90E0958B848B86EC90E0978B868B92
:100C4000118E128E138E148E089597FB072E16F4B4
:100C5000009407D077FD09D00E94390607FC05D023
:100C60003EF4909581959F4F0895709561957F4FC3
:100C70000895AA1BBB1B51E107C0AA1FBB1FA617E3
:100C8000B70710F0A61BB70B881F991F5A95A9F735
:100C900080959095BC01CD010895EE0FFF1F059042
:100CA000F491E02D099481E090E0F8940C944209CD
:100CB000AEE0B0E0EEE5F6E00C9419090D891E896E
:100CC00086E08C831A8309838FEF9FE79E838D8351
:100CD000AE01475E5F4F6F89788DCE0101960E940D
:100CE0007A06EF81F885E00FF11F10822E96E4E07E
:100CF0000C943509ABE0B0E0E0E8F6E00C940B09A9
:100D00006C017B018A01FC0117821682838181FFBD
:100D1000CCC1CE0101963C01F6019381F70193FD10
:100D2000859193FF81917F01882309F4BAC18532AF
:100D300039F493FD859193FF81917F01853229F4E8
:100D4000B60190E00E947108E7CF912C212C312C44
:100D5000FFE1F315D8F08B3279F038F4803279F076
:100D60008332A1F4232D20611DC08D3261F08033C8
:100D700069F4232D216016C0832D8260382EE32D67
:100D8000E4603E2E2AC0F32DF8601DC037FC2DC054
:100D900020ED280F2A3040F08E32B9F436FC81C1A4
:100DA000232D2064322E19C036FE06C08AE0989E9C
:100DB000200D1124922E11C0EAE02E9E200D112448
:100DC000222EF32DF0623F2E08C08C3621F4832DA5
:100DD0008068382E02C0883641F4F70193FD859172
:100DE00093FF81917F018111B3CF982F9F7D9554FF
:100DF000933028F40C5F1F4F9FE399830DC0833617
:100E000031F0833771F0833509F059C021C0F80102
:100E1000808189830E5F1F4F88248394912C530116
:100E200013C02801F2E04F0E511CF801A080B180E0
:100E300036FE03C0692D70E002C06FEF7FEFC50181
:100E40000E9466084C018201F32DFF773F2E16C0E9
:100E5000280122E0420E511CF801A080B18036FE2C
:100E600003C0692D70E002C06FEF7FEFC5010E94E3
:100E70005B084C01F32DF0683F2E820133FC1BC050
:100E8000822D90E088169906B0F4B60180E290E0D9
:100E90000E9471082A94F4CFF50137FC859137FE42
:100EA00081915F01B60190E00E94710821102A949F
:100EB00021E0821A91088114910471F7E8C0843608
:100EC00011F0893641F5F80137FE07C06081718164
:100ED000828193810C5F1F4F08C060817181072E52
:100EE000000C880B990B0E5F1F4FF32DFF763F2EE2
:100EF00097FF09C090958095709561957F4F8F4FB2
:100F00009F4FF0683F2E2AE030E0A3010E94AD0819
:100F1000882E861845C0853731F4232D2F7EB22EBA
:100F20002AE030E025C0932D997FB92E8F36C1F08D
:100F300018F4883579F0B5C0803719F0883721F07A
:100F4000B0C0E92FE061BE2EB4FE0DC0FB2DF460F1
:100F5000BF2E09C034FE0AC0292F2660B22E06C05B
:100F600028E030E005C020E130E002C020E132E0BE
:100F7000F801B7FE07C060817181828193810C5FA7
:100F80001F4F06C06081718180E090E00E5F1F4FAF
:100F9000A3010E94AD08882E8618FB2DFF773F2EF7
:100FA00036FE0DC0232D2E7FA22E891458F434FE58
:100FB0000BC032FC09C0832D8E7EA82E05C0B82C34
:100FC000A32C03C0B82C01C0B92CA4FE0FC0FE0195
:100FD000E80DF11D8081803321F49A2D997EA92E90
:100FE00009C0A2FE06C0B394B39404C08A2D8678CB
:100FF00009F0B394A3FC11C0A0FE06C0B21488F49B
:10100000280C922C9B180EC0B21460F4B60180E23A
:1010100090E00E947108B394F7CFB21418F42B1823
:1010200002C0982C212CA4FE10C0B60180E390E0F1
:101030000E947108A2FE17C0A1FC03C088E790E0DF
:1010400002C088E590E0B6010CC08A2D867859F080
:10105000A1FE02C08BE201C080E2A7FC8DE2B601D6
:1010600090E00E947108891438F4B60180E390E0A2
:101070000E9471089A94F7CF8A94F301E80DF11D4C
:101080008081B60190E00E9471088110F5CF222086
:1010900009F442CEB60180E290E00E9471082A94E1
:1010A000F6CFF6018681978102C08FEF9FEF2B96D6
:1010B000E2E10C942709FC01059061507040011099
:1010C000D8F7809590958E0F9F1F0895FC01615071
:1010D000704001900110D8F7809590958E0F9F1F5A
:1010E00008950F931F93CF93DF93FB01238121FD7D
:1010F00003C08FEF9FEF2CC022FF16C0468157819F
:10110000248135814217530744F4A081B1819D01A8
:101110002F5F3F4F318320838C93268137812F5F50
:101120003F4F3783268314C08B01EC01FB01008401
:10113000F185E02D0995892BE1F6D80116968D9160
:101140009C911797019617969C938E931697CE01B4
:10115000DF91CF911F910F910895FA01AA272830AE
:1011600051F1203181F1E8946F936E7F6E5F7F4F74
:101170008F4F9F4FAF4FB1E03ED0B4E03CD0670FF0
:10118000781F891F9A1FA11D680F791F8A1F911D43
:10119000A11D6A0F711D811D911DA11D20D009F493
:1011A00068943F912AE0269F11243019305D3193D5
:1011B000DEF6CF010895462F4770405D4193B3E0BE
:1011C0000FD0C9F7F6CF462F4F70405D4A3318F065
:1011D000495D31FD4052419302D0A9F7EACFB4E016
:1011E000A6959795879577956795BA95C9F70097CE
:1011F0006105710508959B01AC010A2E069457956F
:10120000479537952795BA95C9F7620F731F841FC5
:10121000951FA01D08952F923F924F925F926F925B
:101220007F928F929F92AF92BF92CF92DF92EF9276
:10123000FF920F931F93CF93DF93CDB7DEB7CA1BF7
:10124000DB0B0FB6F894DEBF0FBECDBF09942A8822
:10125000398848885F846E847D848C849B84AA84CA
:10126000B984C884DF80EE80FD800C811B81AA8157
:10127000B981CE0FD11D0FB6F894DEBF0FBECDBF22
:08128000ED010895F894FFCF81
:101288007E306D79335B5F707F7B00000000DC018E
:10129800450173012902A401820196010D0A00503B
:1012A800726F6772616D6D696E67206F6E6573200E
:1012B800706C6163650050726F6772616D6D696E05
:1012C800672074656E7320706C6163650050726F7F
:1012D8006772616D6D696E672068756E64726564AA
:1012E8007320706C6163650050726F6772616D6D19
:1012F800696E67207369676E0050726F6772616DFF
:101308006D696E67206F6E657320706C6163652010
:101318002874776F7320636F6D706C656D656E747C
:10132800290050726F6772616D6D696E6720746510
:101338006E7320706C616365202874776F73206307
:101348006F6D706C656D656E74290050726F677291
:10135800616D6D696E672068756E6472656473206F
:10136800706C616365202874776F7320636F6D708C
:101378006C656D656E74290050726F6772616D6D72
:10138800696E67207369676E202874776F732063AE
:101398006F6D706C656D656E742900526561646966
:1013A8006E6720454550524F4D00253033783A201E
:1013B80020253032782025303278202530327820A8
:1013C8002530327820253032782025303278202593
:1013D800303278202530327820202025303278208D
:1013E8002530327820253032782025303278202573
:1013F8003032782025303278202530327820253058
:041408003278000036
:00000001FF
