:100000000C9462000C948A000C948A000C948A0070
:100010000C948A000C948A000C948A000C948A0038
:100020000C948A000C948A000C948A000C948A0028
:100030000C948A000C948A000C948A000C948A0018
:100040000C94EE020C948A000C945E030C9438031A
:100050000C948A000C948A000C948A000C948A00F8
:100060000C948A000C948A000000000023002600F3
:10007000290000000000240027002A0000000000E2
:10008000250028002B0004040404040404040202D4
:100090000202020203030303030301020408102007
:1000A0004080010204081020010204081020000012
:1000B0000008000201000003040700000000000027
:1000C0000000020511241FBECFEFD8E0DEBFCDBF78
:1000D00011E0A0E0B1E0ECE4F0E102C005900D9287
:1000E000AC37B107D9F722E0ACE7B1E001C01D920F
:1000F000A232B207E1F710E0C2E6D0E004C02197D7
:10010000FE010E942F05C136D107C9F70E94900356
:100110000C9424080C940000833081F028F4813082
:1001200099F08230A1F008958730A9F08830B9F0B5
:100130008430D1F4809180008F7D03C08091800055
:100140008F7780938000089584B58F7702C084B53F
:100150008F7D84BD08958091B0008F7703C080911A
:10016000B0008F7D8093B00008951F93CF93DF93ED
:10017000282F30E0F901E255FF4F8491F901E6564E
:10018000FF4FD491F901EA57FF4FC491CC23C1F03E
:10019000162F81110E948C00EC2FF0E0EE0FFF1F54
:1001A000E458FF4FA591B4919FB7F894111104C082
:1001B0008C91D095D82302C0EC91DE2BDC939FBFAD
:1001C000DF91CF911F910895CF93DF9390E0FC01D1
:1001D000E656FF4F2491FC01EA57FF4F8491882394
:1001E00061F190E0880F991FFC01EE58FF4FC59117
:1001F000D491FC01E458FF4FA591B491611109C05D
:100200009FB7F8948881209582238883EC912E23D0
:100210000BC0623061F49FB7F8948881322F30951B
:1002200083238883EC912E2B2C939FBF06C08FB71E
:10023000F894E8812E2B28838FBFDF91CF9108950A
:100240003FB7F89480911E0290911F02A091200266
:10025000B091210226B5A89B05C02F3F19F0019649
:10026000A11DB11D3FBFBA2FA92F982F8827820F3C
:10027000911DA11DB11DBC01CD0142E0660F771F8C
:10028000881F991F4A95D1F70895CF92DF92EF9278
:10029000FF920F931F93CF93DF936C017A018B0131
:1002A000C0E0D0E0CE15DF0581F0D8016D918D0161
:1002B000D601ED91FC910190F081E02DC6010995E8
:1002C000892B11F02196EECF7E01C701DF91CF91EE
:1002D0001F910F91FF90EF90DF90CF9008950895B8
:1002E00080E090E00895FC01538D448D252F30E08F
:1002F000842F90E0821B930B541710F0CF96089533
:1003000001970895FC01918D828D981761F0828D7F
:10031000DF01A80FB11D5D968C91928D9F5F9F7339
:10032000928F90E008958FEF9FEF0895FC01918DDB
:10033000828D981731F0828DE80FF11D858D90E048
:1003400008958FEF9FEF0895FC01918D228D892FE5
:1003500090E0805C9F4F821B91098F7399270895CD
:100360008CE791E00E94A40121E0892B09F420E0B0
:10037000822F0895FC01848DDF01A80FB11DA35ABF
:10038000BF4F2C91848D90E001968F739927848FB5
:10039000A689B7892C93A089B1898C9183708064D8
:1003A0008C93938D848D981306C00288F389E02D79
:1003B00080818F7D80830895EF92FF920F931F932A
:1003C000CF93DF93EC0181E0888F9B8D8C8D981308
:1003D00005C0E889F989808185FD26C0F62E0B8D40
:1003E00010E00F5F1F4F0F731127E02E8C8DE81266
:1003F0000CC00FB607FCFACFE889F989808185FF28
:10040000F5CFCE010E94BA01F1CF8B8DFE01E80F2E
:10041000F11DE35AFF4FF0829FB7F8940B8FEA89E2
:10042000FB89808180620AC09FB7F894EE89FF89BA
:100430006083E889F98980818370806480839FBFAD
:1004400081E090E0DF91CF911F910F91FF90EF90AD
:100450000895CF93DF93EC01888D8823C9F0EA8952
:10046000FB89808185FD05C0A889B9898C9186FDAD
:100470000FC00FB607FCF5CF808185FFF2CFA889AA
:10048000B9898C9185FFEDCFCE010E94BA01E7CFEB
:10049000DF91CF91089580E090E0892B29F00E94B0
:1004A000B00181110C94000008950F931F93CF9316
:1004B000DF93C7E0D0E0082F10E0B8010C2E02C097
:1004C000759567950A94E2F7617082E00E94B50025
:1004D00061E083E00E94B50060E083E00E94B50027
:1004E000219758F7DF91CF911F910F910895CF93E6
:1004F000C82F611102C080E801C080E0892B0E94F2
:1005000055028C2F0E94550260E084E00E94B500E5
:1005100061E084E00E94B50060E084E0CF910C943B
:10052000B5008F929F92AF92BF92CF92DF92EF92DF
:10053000FF92CF93DF937C01D62FC5E061E08C2F33
:100540000E94E400CF5FCD30C9F760E0C7010E9490
:100550007702C5E06D2F61708C2F0E94B500D69593
:10056000CF5FCD30B9F760E08DE00E94B50061E06B
:100570008DE00E94B5000E9420014B015C018AE0E1
:10058000C82ED12CE12CF12C0E942001DC01CB01E2
:1005900088199909AA09BB09883E9340A105B105AC
:1005A00098F321E0C21AD108E108F10888EE880E1C
:1005B00083E0981EA11CB11CC114D104E104F10414
:1005C00019F7DF91CF91FF90EF90DF90CF90BF9020
:1005D000AF909F908F9008950E9435051F920F92C3
:1005E0000FB60F9211242F933F938F939F93AF9346
:1005F000BF9380911A0290911B02A0911C02B091AE
:100600001D023091190223E0230F2D3720F40196AB
:10061000A11DB11D05C026E8230F0296A11DB11D25
:100620002093190280931A0290931B02A0931C023C
:10063000B0931D0280911E0290911F02A091200292
:10064000B09121020196A11DB11D80931E029093CD
:100650001F02A0932002B0932102BF91AF919F91FE
:100660008F913F912F910F900FBE0F901F90189573
:100670001F920F920FB60F9211242F933F934F9317
:100680005F936F937F938F939F93AF93BF93EF93FA
:10069000FF938CE791E00E94BA01FF91EF91BF9127
:1006A000AF919F918F917F916F915F914F913F910A
:1006B0002F910F900FBE0F901F9018951F920F92C1
:1006C0000FB60F9211242F938F939F93EF93FF9365
:1006D000E0918C01F0918D018081E0919201F09187
:1006E000930182FD12C09081809195018F5F8F737D
:1006F00020919601821751F0E0919501F0E0E458C5
:10070000FE4F958F8093950101C08081FF91EF91FD
:100710009F918F912F910F900FBE0F901F90189562
:10072000CF93DF93CDB7DEB7C156D1090FB6F8949A
:10073000DEBF0FBECDBF789484B5826084BD84B522
:10074000816084BD85B5826085BD85B5816085BDCC
:1007500080916E00816080936E0010928100809184
:10076000810082608093810080918100816080930C
:100770008100809180008160809380008091B10031
:1007800084608093B1008091B00081608093B0005C
:1007900080917A00846080937A0080917A008260F0
:1007A00080937A0080917A00816080937A008091B2
:1007B0007A00806880937A001092C10061E082E044
:1007C0000E94E40061E083E00E94E40061E084E0D4
:1007D0000E94E40061E08DE00E94B50061E08DE0E0
:1007E0000E94E400E0918C01F0918D0182E0808311
:1007F000E0918C01F0918D011082E0918801F091DF
:1008000089011082E0918A01F0918B0180E180835F
:1008100010929401E0919001F091910186E0808323
:10082000E0918E01F0918F01808180618083E09161
:100830008E01F0918F01808188608083E0918E012C
:10084000F0918F01808180688083E0918E01F0912A
:100850008F0180818F7D808300E010E06FEFC80101
:100860000E9491020F5F1F4F011528E01207B1F798
:1008700032E1E32E31E0F32E00E010E0F701619168
:100880007F01C8010E9491020F5F1F4F00311105C7
:10089000A9F7E12CF12C8E010F5A1F4F2801F0E12E
:1008A0004F0E511CCE0101965C0148013701601AC0
:1008B000710A6301C80CD91C25E0322E60E0832D3B
:1008C0000E94E40033949DE03912F8CF61E0C60144
:1008D0000E94770280E09CE0C92ED12C880FA2965E
:1008E0008FAFA297F601E255FF4F8491F601E656CD
:1008F000FF4F2490F601EA57FF4F3490332079F0F0
:1009000081110E948C00E32DF0E0EE0FFF1FE859EB
:10091000FF4FA591B491EC912E2281E009F480E083
:10092000A296EFADA2978E0FF1E0CF1AD10824E086
:10093000C216D10499F6F40181934F01E415F5052F
:1009400009F0B7CFF80187851F928F9386851F9294
:100950008F9385851F928F9384851F928F938385B4
:100960001F928F9382851F928F9381851F928F9301
:1009700080851F928F9387811F928F9386811F920C
:100980008F9385811F928F9384811F928F93838190
:100990001F928F9382811F928F9381811F928F93D9
:1009A00080811F928F93FF92EF9282E291E09F935A
:1009B0008F93BF92AF920E943A05F50101900020FB
:1009C000E9F73197AF014A195B090FB6F894DEBF1A
:1009D0000FBECDBFB5018CE791E00E94450142E01A
:1009E00050E069E771E08CE791E00E94450190E1F9
:1009F000E90EF11CE114E1E0FE0609F056CF0E9479
:100A00004B02FDCFECE7F1E01382128288EE93E017
:100A1000A0E0B0E084839583A683B78384E091E06F
:100A20009183808385EC90E09587848784EC90E0C7
:100A30009787868780EC90E0918B808B81EC90E0AB
:100A4000938B828B82EC90E0958B848B86EC90E08C
:100A5000978B868B118E128E138E148E0895EE0F47
:100A6000FF1F0590F491E02D099481E090E0F89447
:100A70000C942408AEE0B0E0E0E4F5E00C94FB0751
:100A80000D891E8986E08C831A8309838FEF9FE787
:100A90009E838D83AE01475E5F4F6F89788DCE0157
:100AA00001960E945C05EF81F885E00FF11F10822E
:100AB0002E96E4E00C941708ABE0B0E0E2E6F5E037
:100AC0000C94ED076C017B018A01FC0117821682F0
:100AD000838181FFCCC1CE0101963C01F601938157
:100AE000F70193FD859193FF81917F01882309F49C
:100AF000BAC1853239F493FD859193FF81917F01CD
:100B0000853229F4B60190E00E945307E7CF912C7B
:100B1000212C312CFFE1F315D8F08B3279F038F429
:100B2000803279F08332A1F4232D20611DC08D32F3
:100B300061F0803369F4232D216016C0832D82601B
:100B4000382EE32DE4603E2E2AC0F32DF8601DC040
:100B500037FC2DC020ED280F2A3040F08E32B9F43A
:100B600036FC81C1232D2064322E19C036FE06C00A
:100B70008AE0989E200D1124922E11C0EAE02E9E4C
:100B8000200D1124222EF32DF0623F2E08C08C364A
:100B900021F4832D8068382E02C0883641F4F70195
:100BA00093FD859193FF81917F018111B3CF982FA0
:100BB0009F7D9554933028F40C5F1F4F9FE39983DA
:100BC0000DC0833631F0833771F0833509F059C099
:100BD00021C0F801808189830E5F1F4F8824839490
:100BE000912C530113C02801F2E04F0E511CF80163
:100BF000A080B18036FE03C0692D70E002C06FEFA7
:100C00007FEFC5010E9448074C018201F32DFF7759
:100C10003F2E16C0280122E0420E511CF801A08090
:100C2000B18036FE03C0692D70E002C06FEF7FEF28
:100C3000C5010E943D074C01F32DF0683F2E820153
:100C400033FC1BC0822D90E088169906B0F4B601E3
:100C500080E290E00E9453072A94F4CFF50137FC1C
:100C6000859137FE81915F01B60190E00E945307A4
:100C700021102A9421E0821A91088114910471F7BD
:100C8000E8C0843611F0893641F5F80137FE07C017
:100C900060817181828193810C5F1F4F08C06081E8
:100CA0007181072E000C880B990B0E5F1F4FF32DDF
:100CB000FF763F2E97FF09C09095809570956195BE
:100CC0007F4F8F4F9F4FF0683F2E2AE030E0A30107
:100CD0000E948F07882E861845C0853731F4232D52
:100CE0002F7EB22E2AE030E025C0932D997FB92EB9
:100CF0008F36C1F018F4883579F0B5C0803719F017
:100D0000883721F0B0C0E92FE061BE2EB4FE0DC0DF
:100D1000FB2DF460BF2E09C034FE0AC0292F2660C7
:100D2000B22E06C028E030E005C020E130E002C06D
:100D300020E132E0F801B7FE07C060817181828155
:100D400093810C5F1F4F06C06081718180E090E04D
:100D50000E5F1F4FA3010E948F07882E8618FB2D60
:100D6000FF773F2E36FE0DC0232D2E7FA22E891435
:100D700058F434FE0BC032FC09C0832D8E7EA82EA1
:100D800005C0B82CA32C03C0B82C01C0B92CA4FEFC
:100D90000FC0FE01E80DF11D8081803321F49A2DF2
:100DA000997EA92E09C0A2FE06C0B394B39404C0D4
:100DB0008A2D867809F0B394A3FC11C0A0FE06C06A
:100DC000B21488F4280C922C9B180EC0B21460F454
:100DD000B60180E290E00E945307B394F7CFB214BB
:100DE00018F42B1802C0982C212CA4FE10C0B601B8
:100DF00080E390E00E945307A2FE17C0A1FC03C04D
:100E000088E790E002C088E590E0B6010CC08A2D2A
:100E1000867859F0A1FE02C08BE201C080E2A7FCF7
:100E20008DE2B60190E00E945307891438F4B601B0
:100E300080E390E00E9453079A94F7CF8A94F301DD
:100E4000E80DF11D8081B60190E00E9453078110EA
:100E5000F5CF222009F442CEB60180E290E00E9454
:100E600053072A94F6CFF6018681978102C08FEF4F
:100E70009FEF2B96E2E10C940908FC01059061506C
:100E800070400110D8F7809590958E0F9F1F0895A0
:100E9000FC016150704001900110D8F78095909549
:100EA0008E0F9F1F08950F931F93CF93DF93FB0126
:100EB000238121FD03C08FEF9FEF2CC022FF16C0BE
:100EC00046815781248135814217530744F4A0811C
:100ED000B1819D012F5F3F4F318320838C93268109
:100EE00037812F5F3F4F3783268314C08B01EC017E
:100EF000FB010084F185E02D0995892BE1F6D801ED
:100F000016968D919C911797019617969C938E93A8
:100F10001697CE01DF91CF911F910F910895FA019D
:100F2000AA27283051F1203181F1E8946F936E7F28
:100F30006E5F7F4F8F4F9F4FAF4FB1E03ED0B4E019
:100F40003CD0670F781F891F9A1FA11D680F791F5A
:100F50008A1F911DA11D6A0F711D811D911DA11D6B
:100F600020D009F468943F912AE0269F112430197B
:100F7000305D3193DEF6CF010895462F4770405D16
:100F80004193B3E00FD0C9F7F6CF462F4F70405DC5
:100F90004A3318F0495D31FD4052419302D0A9F720
:100FA000EACFB4E0A6959795879577956795BA951A
:100FB000C9F700976105710508959B01AC010A2EE0
:100FC00006945795479537952795BA95C9F7620FB7
:100FD000731F841F951FA01D08952F923F924F925B
:100FE0005F926F927F928F929F92AF92BF92CF92B9
:100FF000DF92EF92FF920F931F93CF93DF93CDB7C2
:10100000DEB7CA1BDB0B0FB6F894DEBF0FBECDBF39
:1010100009942A88398848885F846E847D848C840A
:101020009B84AA84B984C884DF80EE80FD800C8113
:101030001B81AA81B981CE0FD11D0FB6F894DEBFF6
:0C1040000FBECDBFED010895F894FFCF66
:10104C0000000000DC01450173012902A4018201AA
:10105C009601014F12064C24200F00040860314207
:10106C003038253033783A2025303278202530320C
:10107C00782025303278202530327820253032788F
:10108C0020253032782025303278202530327820D7
:10109C0020253032782025303278202530327820C7
:1010AC0025303278202530327820253032782025B2
:0C10BC003032782025303278000D0A0018
:00000001FF
